:020000040800F2
:10000000005000204D070008F1060008F706000820
:10001000FD060008030700080907000800000000AB
:100020000000000000000000000000000F070008B2
:100030001B0700080000000027070008330700081E
:100040009507000895070008950700089507000820
:100050009507000895070008950700089507000810
:100060009507000895070008950700089507000800
:1000700095070008950700089507000895070008F0
:1000800095070008950700089507000895070008E0
:1000900095070008950700089507000895070008D0
:1000A00095070008950700089507000895070008C0
:1000B00095070008950700089507000895070008B0
:1000C00095070008950700089507000895070008A0
:1000D0009507000895070008950700089507000890
:1000E0009507000895070008950700080000000024
:1000F0000000000000000000000000000000000000
:0C01000000000000000000005FF808F1A3
:10010C0010B5054C237833B9044B13B10448AFF345
:10011C0000800123237010BD0C00002000000000A3
:10012C005820000808B5034B1BB103490348AFF333
:10013C00008008BD000000001000002058200008BE
:10014C0080B500AF00F022FB00F00DF800F044F990
:10015C0000F066F800F0A2F800F0D0F800F004F916
:10016C0000F0B0F8FEE780B594B000AF07F12803BB
:10017C0028220021184601F061FF07F11403002228
:10018C001A605A609A60DA601A613B1D00221A608C
:10019C005A609A60DA600A23BB620123BB631023A6
:1001AC00FB6301233B6402237B640023BB644FF499
:1001BC00E013FB6407F12803184601F003F803462B
:1001CC00002B01D000F05EF90F237B610223BB6191
:1001DC000023FB614FF480633B6200237B6207F1D9
:1001EC0014030121184601F06DFA0346002B01D0CF
:1001FC0000F048F903237B604FF40073BB604FF4AD
:10020C000043FB603B1D184601F0E2FB0346002B4C
:10021C0001D000F037F900BF5037BD4680BD00005B
:10022C0080B584B000AF3B1D00221A605A609A6002
:10023C00184B194A1A60174B00229A60154B002272
:10024C001A73144B00221A75124B4FF46022DA61A8
:10025C00104B00225A600F4B01221A610D4800F01E
:10026C00F7FA0346002B01D000F00CF900237B6059
:10027C000123BB600023FB603B1D1946054800F0C1
:10028C00BFFB0346002B01D000F0FCF800BF103779
:10029C00BD4680BD880000200024014080B500AF21
:1002AC00064B074A1A60054800F0C7FD0346002BB1
:1002BC0001D000F0E7F800BF80BD00BF8000002037
:1002CC000030024080B500AF0A4B0B4A1A60094B54
:1002DC004FF0FF325A60074B4FF480729A6005481A
:1002EC0001F0F0FC0346002B01D000F0CBF800BF6E
:1002FC0080BD00BFB80000200028004080B500AFD2
:10030C00174B184A1A60164B4FF482725A60144BF2
:10031C0000229A60124B0022DA60114B00221A6103
:10032C000F4B00225A610E4B00229A610C4B282273
:10033C00DA610B4B00221A62094B00225A62084BFD
:10034C0000229A62064B0A22DA62054801F0CDFDC2
:10035C000346002B01D000F095F800BF80BD00BF14
:10036C00CC0000200030014080B500AF184B194A7A
:10037C001A60174B4FF482725A60154B4FF40042BF
:10038C009A60134B0022DA60114B00221A61104B59
:10039C0000225A610E4B4FF480229A610C4B0022C2
:1003AC00DA610B4B00221A62094B00225A62084B8D
:1003BC0000229A62064B0A22DA62054801F095FD8A
:1003CC000346002B01D000F05DF800BF80BD00BFDC
:1003DC00280000200038004080B588B000AF07F13D
:1003EC00100300221A605A609A60DA60234B9B69F2
:1003FC00224A43F010039361204B9B6903F01003D6
:10040C00FB60FB681D4B9B691C4A43F00403936122
:10041C001A4B9B6903F00403BB60BB68174B9B69C9
:10042C00164A43F008039361144B9B6903F00803CD
:10043C007B607B6800220321114800F09FFE0323A0
:10044C003B6101237B610023BB610223FB6107F14C
:10045C00100319460A4800F00DFD04233B610023EC
:10046C007B610223BB6107F110031946044800F0BD
:10047C0001FD00BF2037BD4680BD00BF001002400B
:10048C00000C014080B400AF72B600BFFEE7000064
:10049C0080B485B000AF154B9B69144A43F001033F
:1004AC009361124B9B6903F00103BB60BB680F4B5C
:1004BC00DB690E4A43F08053D3610C4BDB6903F0CC
:1004CC0080537B607B680A4B5B68FB60FB6823F0A6
:1004DC00E063FB60FB6843F00073FB60044AFB685D
:1004EC00536000BF1437BD4680BC704700100240FB
:1004FC000000014080B588B000AF786007F11003B0
:10050C0000221A605A609A60DA607B681B68144A91
:10051C00934221D1134B9B69124A43F400739361AC
:10052C00104B9B6903F40073FB60FB680D4B9B69DC
:10053C000C4A43F0040393610A4B9B6903F00403D8
:10054C00BB60BB6801233B6103237B6107F1100394
:10055C001946054800F08EFC00BF2037BD4680BD13
:10056C0000240140001002400008014080B485B016
:10057C0000AF78607B681B68094A93420BD1094B2A
:10058C005B69084A43F040035361064B5B6903F017
:10059C004003FB60FB6800BF1437BD4680BC70474E
:1005AC00003002400010024080B584B000AF78608B
:1005BC007B681B680B4A934210D100F0F7FD0A4B85
:1005CC00DB69094A43F00063D361074BDB6903F035
:1005DC000063FB60FB68054B01221A6000BF1037FB
:1005EC00BD4680BD00280040001002403C04424241
:1005FC0080B58AB000AF786007F1180300221A604A
:10060C005A609A60DA607B681B68314A934230D139
:10061C00304B9B692F4A43F4805393612D4B9B695C
:10062C0003F480537B617B692A4B9B69294A43F015
:10063C0004039361274B9B6903F004033B613B6903
:10064C005023BB610023FB6100233B6207F11803BD
:10065C001946214800F00EFCA023BB610223FB616C
:10066C0003237B6207F1180319461B4800F002FCB8
:10067C0029E07B681B68194A934224D1154BDB692E
:10068C00144A43F48043D361124BDB6903F4804377
:10069C00FB60FB680F4B9B690E4A43F008039361A8
:1006AC000C4B9B6903F00803BB60BB684FF43043F1
:1006BC00BB610223FB6103237B6207F1180319461C
:1006CC00074800F0D7FB00BF2837BD4680BD00BFF0
:1006DC00003001400010024000080140003800408A
:1006EC00000C014080B400AFFEE780B400AFFEE721
:1006FC0080B400AFFEE780B400AFFEE780B400AF7B
:10070C00FEE780B400AF00BFBD4680BC704780B42C
:10071C0000AF00BFBD4680BC704780B400AF00BFC7
:10072C00BD4680BC704780B500AF00F075F800BFC7
:10073C0080BD80B400AF00BFBD4680BC70470000D8
:10074C000C480D490D4A002302E0D458C450043320
:10075C00C4188C42F9D30A4A0A4C002301E01360F6
:10076C000432A242FBD3FFF7E4FF01F043FCFFF796
:10077C00E7FC7047000000200C000020B0200008AF
:10078C000C00002028010020FEE7000080B500AF1F
:10079C00084B1B68074A43F010031360032000F05A
:1007AC0019FB0F2000F008F8FFF772FE0023184623
:1007BC0080BD00BF0020024080B582B000AF7860E1
:1007CC00124B1A68124B1B7819464FF47A73B3FB11
:1007DC00F1F3B2FBF3F3184600F023FB0346002BB6
:1007EC0001D001230EE07B680F2B0AD80022796818
:1007FC004FF0FF3000F0F9FA064A7B6813600023D3
:10080C0000E0012318460837BD4680BD00000020DB
:10081C00080000200400002080B400AF054B1B78BA
:10082C001A46054B1B681344034A136000BFBD46B0
:10083C0080BC7047080000202401002080B400AF69
:10084C00024B1B681846BD4680BC70472401002033
:10085C0080B586B000AF78600023FB7500233B6148
:10086C000023BB600023FB607B68002B01D10123BC
:10087C00BEE07B689B68002B7B689B6A002B09D1D0
:10088C007B680022DA627B68002283F82420786877
:10089C00FFF730FE786800F0ABF90346FB757B6818
:1008AC009B6A03F01003002B40F09980FB7D002B1A
:1008BC0040F095807B689B6A23F4885323F00203F5
:1008CC0043F002027B689A627B685A687B68DB693A
:1008DC001A437B681B7B5B001343BA681343BB60F2
:1008EC007B689B68B3F5807F03D07B689B68012B8A
:1008FC0002D14FF4807300E000233A6913433B614B
:10090C007B681B7D012B19D17B681B7B002B09D1CC
:10091C007B689B69013B5A033B69134343F40063B7
:10092C003B610BE07B689B6A43F020027B689A6218
:10093C007B68DB6A43F001027B68DA627B681B68C8
:10094C005B6823F469417B681B683A690A435A6007
:10095C007B681B689A68284B13407A681268B968E0
:10096C000B4393607B689B68B3F5807F03D07B68F7
:10097C009B68012B04D17B681B69013B1B05FB6049
:10098C007B681B68DB6A23F470017B681B68FA6860
:10099C000A43DA627B681B689A68184B1340BA6882
:1009AC009A420BD17B680022DA627B689B6A23F047
:1009BC00030343F001027B689A6218E07B689B6A30
:1009CC0023F0120343F010027B689A627B68DB6AA7
:1009DC0043F001027B68DA620123FB7507E07B6858
:1009EC009B6A43F010027B689A620123FB75FB7DC6
:1009FC0018461837BD4680BDFDF7E1FFFE0E1FFF00
:100A0C0080B485B000AF786039600023FB7300239D
:100A1C00BB607B6893F82430012B01D10223DCE00E
:100A2C007B68012283F824203B685B68062B1CD86A
:100A3C007B681B68596B3B685A6813469B001344D0
:100A4C00053B1F2202FA03F3DB4319403B6818688D
:100A5C003B685A6813469B001344053B00FA03F2AB
:100A6C007B681B680A435A633CE03B685B680C2B51
:100A7C001CD87B681B68196B3B685A6813469B0033
:100A8C001344233B1F2202FA03F3DB4319403B6858
:100A9C0018683B685A6813469B001344233B00FAC2
:100AAC0003F27B681B680A431A631BE07B681B68B4
:100ABC00D96A3B685A6813469B001344413B1F227A
:100ACC0002FA03F3DB4319403B6818683B685A6829
:100ADC0013469B001344413B00FA03F27B681B68EE
:100AEC000A43DA623B681B68092B1CD97B681B68BC
:100AFC00D9683B681A6813465B0013441E3B0722F7
:100B0C0002FA03F3DB4319403B6898683B681A68A8
:100B1C0013465B0013441E3B00FA03F27B681B6810
:100B2C000A43DA6019E07B681B6819693B681A682C
:100B3C0013465B001344072202FA03F3DB4319400C
:100B4C003B6898683B681A6813465B00134400FACC
:100B5C0003F27B681B680A431A613B681B68102B05
:100B6C0003D03B681B68112B32D17B681B681D4A74
:100B7C00934225D17B681B689B6803F40003002B10
:100B8C0026D17B681B689A687B681B6842F400025C
:100B9C009A603B681B68102B1AD1134B1B68134AC5
:100BAC00A2FB03239A0C13469B0013445B00BB600F
:100BBC0002E0BB68013BBB60BB68002BF9D107E0CE
:100BCC007B689B6A43F020027B689A620123FB736B
:100BDC007B68002283F82420FB7B18461437BD4623
:100BEC0080BC7047002401400000002083DE1B43C2
:100BFC0080B584B000AF78600023FB607B681B6815
:100C0C009B6803F00103012B2ED17B681B689A684B
:100C1C007B681B6822F001029A60FFF70FFEF860F8
:100C2C001BE0FFF70BFE0246FB68D31A022B14D90C
:100C3C007B681B689B6803F00103012B0DD17B685B
:100C4C009B6A43F010027B689A627B68DB6A43F014
:100C5C0001027B68DA62012307E07B681B689B68F2
:100C6C0003F00103012BDCD0002318461037BD46DE
:100C7C0080BD000080B485B000AF78607B6803F065
:100C8C000703FB600C4BDB68BB60BA684FF6FF03D5
:100C9C001340BB60FB681A02BB68134343F0BF638D
:100CAC0043F40033BB60044ABB68D36000BF143705
:100CBC00BD4680BC704700BF00ED00E080B400AFC3
:100CCC00044BDB681B0A03F007031846BD4680BCC7
:100CDC00704700BF00ED00E080B483B000AF034666
:100CEC003960FB7197F90730002B0ADB3B68DAB2ED
:100CFC000C4997F907301201D2B20B4483F8002348
:100D0C000AE03B68DAB20849FB7903F00F03043BB5
:100D1C001201D2B20B441A7600BF0C37BD4680BC10
:100D2C00704700BF00E100E000ED00E080B489B046
:100D3C0000AFF860B9607A60FB6803F00703FB61F1
:100D4C00FB69C3F10703042B28BF0423BB61FB69B8
:100D5C000433062B02D9FB69033B00E000237B61C3
:100D6C004FF0FF32BB6902FA03F3DA43BB681A4057
:100D7C007B699A404FF0FF317B6901FA03F3D94349
:100D8C007B680B40134318462437BD4680BC704724
:100D9C0080B582B000AF78607B68013BB3F1807F97
:100DAC0001D301230FE00A4A7B68013B53600F21FA
:100DBC004FF0FF30FFF790FF054B00229A60044B79
:100DCC0007221A60002318460837BD4680BD00BFB5
:100DDC0010E000E080B582B000AF78607868FFF773
:100DEC0049FF00BF0837BD4680BD80B586B000AF57
:100DFC000346B9607A60FB7300237B61FFF75EFFEB
:100E0C0078617A68B9687869FFF790FF024697F9BC
:100E1C000F3011461846FFF75FFF00BF1837BD466D
:100E2C0080BD80B582B000AF78607868FFF7B0FF06
:100E3C00034618460837BD4680BD80B582B000AF6A
:100E4C0078607B68002B01D101230EE07B685B7915
:100E5C00DBB2002B05D17B6800221A717868FFF792
:100E6C0085FB7B6801225A71002318460837BD4662
:100E7C0080BD000080B48BB000AF78603960002377
:100E8C007B6200233B6269E101227B6A02FA03F375
:100E9C00FB613B681B68FA691340BB61BA69FB696B
:100EAC009A4240F058813B685B689A4A93425ED004
:100EBC00984A934275D8984A934258D0964A93428E
:100ECC006FD8964A934252D0944A934269D8944A26
:100EDC0093424CD0924A934263D8924A934246D062
:100EEC00904A93425DD8122B2AD8122B59D801A2C2
:100EFC0052F823F07B0F0008550F0008670F00080D
:100F0C00A90F0008AF0F0008AF0F0008AF0F0008C3
:100F1C00AF0F0008AF0F0008AF0F0008AF0F0008AD
:100F2C00AF0F0008AF0F0008AF0F0008AF0F00089D
:100F3C00AF0F0008AF0F00085D0F0008710F00081D
:100F4C00794A934213D02CE03B68DB683B6229E082
:100F5C003B68DB6804333B6224E03B68DB680833A6
:100F6C003B621FE03B68DB680C333B621AE03B687A
:100F7C009B68002B02D104233B6213E03B689B6807
:100F8C00012B05D108233B627B68FA691A6109E0E1
:100F9C0008233B627B68FA695A6103E000233B62D9
:100FAC0000E000BFBB69FF2B01D87B6801E07B68C8
:100FBC0004337B61BB69FF2B02D87B6A9B0002E088
:100FCC007B6A083B9B003B617B691A680F213B697C
:100FDC0001FA03F3DB431A40396A3B6901FA03F364
:100FEC001A437B691A603B685B6803F08053002BE3
:100FFC0000F0B1804D4B9B694C4A43F00103936167
:10100C004A4B9B6903F00103BB60BB68484A7B6A8F
:10101C009B08023352F82330FB607B6A03F0030316
:10102C009B000F2202FA03F3DB43FA681340FB60C8
:10103C007B68404A934213D07B683F4A93420DD061
:10104C007B683E4A934207D07B683D4A934201D16C
:10105C00032306E0042304E0022302E0012300E062
:10106C0000237A6A02F0030292009340FA68134359
:10107C00FB602F497B6A9B080233FA6841F82320F6
:10108C003B685B6803F48033002B06D02D4B1A6849
:10109C002C49BB6913430B6006E02A4B1A68BB69E9
:1010AC00DB43284913400B603B685B6803F4003357
:1010BC00002B06D0234B5A682249BB6913434B6063
:1010CC0006E0204B5A68BB69DB431E4913404B605A
:1010DC003B685B6803F48013002B06D0194B9A68AD
:1010EC001849BB6913438B6006E0164B9A68BB69C1
:1010FC00DB43144913408B603B685B6803F40013BB
:10110C00002B21D00F4BDA680E49BB691343CB601F
:10111C0021E000BF0000321000003110000022104E
:10112C0000002110000012100000111000100240ED
:10113C000000014000080140000C0140001001407B
:10114C0000140140000401400B4BDA68BB69DB431F
:10115C0009491340CB607B6A01337B623B681A6898
:10116C007B6A22FA03F3002B7FF48EAE00BF00BF24
:10117C002C37BD4680BC70470004014080B483B05E
:10118C0000AF78600B467B8013467B707B78002B1E
:10119C0003D07A887B681A6103E07B881A047B6829
:1011AC001A6100BF0C37BD4680BC704780B400AFDD
:1011BC00034B01221A6000BFBD4680BC704700BFC4
:1011CC0020000E4280B586B000AF78607B68002BA3
:1011DC0001D101236CE27B681B6803F00103002B37
:1011EC0000F08780924B5B6803F00C03042B0CD04F
:1011FC008F4B5B6803F00C03082B12D18C4B5B6894
:10120C0003F48033B3F5803F0BD1894B1B6803F497
:10121C000033002B6CD07B685B68002B68D10123FA
:10122C0046E27B685B68B3F5803F06D1804B1B6858
:10123C007F4A43F4803313602EE07B685B68002B9D
:10124C000CD17B4B1B687A4A23F480331360784BA8
:10125C001B68774A23F4802313601DE07B685B686E
:10126C00B3F5A02F0CD1724B1B68714A43F4802349
:10127C0013606F4B1B686E4A43F4803313600BE0B2
:10128C006B4B1B686A4A23F480331360684B1B68F2
:10129C00674A23F4802313607B685B68002B13D0B0
:1012AC00FFF7CCFA386108E0FFF7C8FA02463B6951
:1012BC00D31A642B01D90323FAE15D4B1B6803F4A9
:1012CC000033002BF0D014E0FFF7B8FA386108E0D7
:1012DC00FFF7B4FA02463B69D31A642B01D90323F6
:1012EC00E6E1534B1B6803F40033002BF0D100E014
:1012FC0000BF7B681B6803F00203002B63D04C4BD0
:10130C005B6803F00C03002B0BD0494B5B6803F0BC
:10131C000C03082B1CD1464B5B6803F48033002B69
:10132C0016D1434B1B6803F00203002B05D07B68DE
:10133C001B69012B01D00123BAE13D4B1B6823F043
:10134C00F8027B685B69DB00394913430B603AE0B8
:10135C007B681B69002B20D0364B01221A60FFF7EB
:10136C006DFA386108E0FFF769FA02463B69D31A57
:10137C00022B01D903239BE12D4B1B6803F00203C5
:10138C00002BF0D02A4B1B6823F0F8027B685B69BA
:10139C00DB00274913430B6015E0264B00221A6033
:1013AC00FFF74CFA386108E0FFF748FA02463B6950
:1013BC00D31A022B01D903237AE11D4B1B6803F0CE
:1013CC000203002BF0D17B681B6803F00803002B91
:1013DC003AD07B689B69002B19D0174B01221A60FD
:1013EC00FFF72CFA386108E0FFF728FA02463B6950
:1013FC00D31A022B01D903235AE10D4B5B6A03F07C
:10140C000203002BF0D0012000F0C4FA1CE00A4BC0
:10141C0000221A60FFF712FA38610FE0FFF70EFA9C
:10142C0002463B69D31A022B08D9032340E100BFC3
:10143C000010024000004242800442429E4B5B6A14
:10144C0003F00203002BE9D17B681B6803F0040353
:10145C00002B00F0A6800023FB75974BDB6903F093
:10146C008053002B0DD1944BDB69934A43F080538E
:10147C00D361914BDB6903F08053BB60BB680123E4
:10148C00FB758E4B1B6803F48073002B18D18B4BB0
:10149C001B688A4A43F480731360FFF7CFF93861F5
:1014AC0008E0FFF7CBF902463B69D31A642B01D94C
:1014BC000323FDE0814B1B6803F48073002BF0D0F9
:1014CC007B68DB68012B06D17B4B1B6A7A4A43F0A5
:1014DC00010313622DE07B68DB68002B0CD1764B8B
:1014EC001B6A754A23F001031362734B1B6A724A21
:1014FC0023F0040313621CE07B68DB68052B0CD122
:10150C006D4B1B6A6C4A43F0040313626A4B1B6AF3
:10151C00694A43F0010313620BE0674B1B6A664A8E
:10152C0023F001031362644B1B6A634A23F0040328
:10153C0013627B68DB68002B15D0FFF77FF93861ED
:10154C000AE0FFF77BF902463B69D31A41F2883275
:10155C00934201D90323ABE0574B1B6A03F0020300
:10156C00002BEED014E0FFF769F938610AE0FFF7C1
:10157C0065F902463B69D31A41F28832934201D98C
:10158C00032395E04C4B1B6A03F00203002BEED1B6
:10159C00FB7D012B05D1484BDB69474A23F0805377
:1015AC00D3617B68DB69002B00F08180424B5B6868
:1015BC0003F00C03082B61D07B68DB69022B46D14E
:1015CC003F4B00221A60FFF739F9386108E0FFF74A
:1015DC0035F902463B69D31A022B01D9032367E084
:1015EC00354B1B6803F00073002BF0D17B681B6A32
:1015FC00B3F5803F08D1304B5B6823F400327B6835
:10160C009B682D4913434B602B4B5B6823F474127E
:10161C007B68196A7B685B6A0B43274913434B60F1
:10162C00274B01221A60FFF709F9386108E0FFF730
:10163C0005F902463B69D31A022B01D9032337E083
:10164C001D4B1B6803F00073002BF0D02FE01C4BDC
:10165C0000221A60FFF7F2F8386108E0FFF7EEF8A5
:10166C0002463B69D31A022B01D9032320E0124B0B
:10167C001B6803F00073002BF0D118E07B68DB696A
:10168C00012B01D1012313E00B4B5B68FB60FB6862
:10169C0003F480327B681B6A9A4206D1FB6803F420
:1016AC0070127B685B6A9A4201D0012300E0002330
:1016BC0018461837BD4680BD00100240007000402F
:1016CC006000424280B584B000AF786039607B68BE
:1016DC00002B01D10123D0E06A4B1B6803F00703F8
:1016EC003A689A4210D9674B1B6823F00702654988
:1016FC003B6813430B60634B1B6803F007033A68AA
:10170C009A4201D00123B8E07B681B6803F0020306
:10171C00002B20D07B681B6803F00403002B05D042
:10172C00594B5B68584A43F4E06353607B681B6811
:10173C0003F00803002B05D0534B5B68524A43F46B
:10174C0060535360504B5B6823F0F0027B689B68DE
:10175C004D4913434B607B681B6803F00103002B5E
:10176C0040D07B685B68012B07D1474B1B6803F4A7
:10177C000033002B15D101237FE07B685B68022BC3
:10178C0007D1414B1B6803F00073002B09D10123D7
:10179C0073E03D4B1B6803F00203002B01D10123C6
:1017AC006BE0394B5B6823F003027B685B6836495E
:1017BC0013434B60FFF742F8F8600AE0FFF73EF87E
:1017CC000246FB68D31A41F28832934201D90323B3
:1017DC0053E02D4B5B6803F00C027B685B689B004D
:1017EC009A42EBD1274B1B6803F007033A689A42E5
:1017FC0010D2244B1B6823F0070222493B68134389
:10180C000B60204B1B6803F007033A689A4201D027
:10181C00012332E07B681B6803F00403002B08D023
:10182C00194B5B6823F4E0627B68DB681649134351
:10183C004B607B681B6803F00803002B09D0124B2C
:10184C005B6823F460527B681B69DB000E49134311
:10185C004B6000F021F802460B4B5B681B0903F050
:10186C000F030A49CB5C22FA03F3094A1360094BB4
:10187C001B681846FEF7A0FF002318461037BD461C
:10188C0080BD00BF002002400010024090200008E4
:10189C00000000200400002090B48AB000AF2A4B56
:1018AC003C1D0FCB84E80F0040F201233B8000234A
:1018BC00FB610023BB6100237B6200237B6100235F
:1018CC003B62224B5B68FB61FB6903F00C03042B4E
:1018DC0002D0082B03D02DE01D4B3B622DE0FB69A1
:1018EC009B0C03F00F0307F12802134413F8243C5C
:1018FC007B61FB6903F48033002B13D0134B5B68C3
:10190C005B0C03F0010307F12802134413F8283C85
:10191C00BB617B690E4A02FB03F2BB69B2FBF3F3BA
:10192C007B6204E07B690B4A02FB03F37B627B6AFC
:10193C003B6202E0064B3B6200BF3B6A184628370D
:10194C00BD4690BC704700BF7020000800100240DC
:10195C0000127A0000093D0080B400AF024B1B68F6
:10196C001846BD4680BC70470000002080B500AF13
:10197C00FFF7F2FF0246054B5B68DB0A03F0070337
:10198C000349CB5C22FA03F3184680BD00100240D9
:10199C00A020000880B485B000AF78600A4B1B68AB
:1019AC000A4AA2FB03235B0A7A6802FB03F3FB607F
:1019BC0000BFFB685A1EFA60002BF9D100BF00BFB4
:1019CC001437BD4680BC704700000020D34D621018
:1019DC0080B586B000AF786000233B610023FB60CC
:1019EC007B681B6803F00103002B7DD00023FB7583
:1019FC004F4BDB6903F08053002B0DD14C4BDB6953
:101A0C004B4A43F08053D361494BDB6903F080535D
:101A1C00BB60BB680123FB75464B1B6803F48073EA
:101A2C00002B18D1434B1B68424A43F4807313605C
:101A3C00FEF704FF386108E0FEF700FF02463B6941
:101A4C00D31A642B01D903236DE03A4B1B6803F4C2
:101A5C008073002BF0D0364B1B6A03F44073FB6091
:101A6C00FB68002B2ED07B685B6803F44073FA682C
:101A7C009A4227D02E4B1B6A23F44073FB602E4BEB
:101A8C0001221A602C4B00221A60294AFB6813624F
:101A9C00FB6803F00103002B14D0FEF7CFFE386176
:101AAC000AE0FEF7CBFE02463B69D31A41F28832BC
:101ABC00934201D9032336E01D4B1B6A03F002034A
:101ACC00002BEED01A4B1B6A23F440727B685B68C8
:101ADC00174913430B62FB7D012B05D1144BDB69BA
:101AEC00134A23F08053D3617B681B6803F0020315
:101AFC00002B08D00E4B5B6823F440427B689B683C
:101B0C000B4913434B607B681B6803F01003002BDD
:101B1C0008D0074B5B6823F480027B68DB680449C0
:101B2C0013434B60002318461837BD4680BD00BFD9
:101B3C0000100240007000404004424290B58DB04D
:101B4C0000AF78605A4B07F10C040FCB84E80F0000
:101B5C0040F201233B8100237B620023FB620023C4
:101B6C003B620023FB610023BB627B68102B0AD015
:101B7C007B68102B00F291807B68012B4CD07B682A
:101B8C00022B7CD089E04B4B5B68FB61494B1B689B
:101B9C0003F08073002B00F08280FB699B0C03F038
:101BAC000F0307F13002134413F8243C3B62FB692A
:101BBC0003F48033002B18D03E4B5B685B0C03F0B6
:101BCC00010307F13002134413F8283C7B62FB69D4
:101BDC0003F48033002B0DD0374A7B6AB2FBF3F24F
:101BEC003B6A02FB03F3FB6204E03B6A334A02FBF1
:101BFC0003F3FB622F4B5B6803F48003B3F5800F98
:101C0C0002D1FB6ABB624AE0FB6A5B002C4AA2FB76
:101C1C0003235B08BB6242E0264B1B6AFB61FB693A
:101C2C0003F44073B3F5807F08D1FB6903F0020322
:101C3C00002B03D04FF40043BB621FE0FB6903F49D
:101C4C004073B3F5007F09D11A4B5B6A03F00203B2
:101C5C00002B03D049F64043BB620FE0FB6903F451
:101C6C004073B3F5407F1CD1124B1B6803F4003357
:101C7C00002B16D04FF22443BB6212E011E0FFF7A9
:101C8C0075FE02460B4B5B689B0B03F003030133A1
:101C9C005B00B2FBF3F3BB6204E000BF02E000BFE9
:101CAC0000E000BFBB6A18463437BD4690BD00BF8C
:101CBC00802000080010024000127A0000093D004C
:101CCC00ABAAAAAA80B584B000AF78600023FB60F1
:101CDC007B68002B01D1012384E07B685B7CDBB249
:101CEC00002B05D17B6800221A747868FEF75CFC27
:101CFC007B6802225A74786800F07AF80346002B4D
:101D0C0004D07B6804225A7401236BE0786800F0DD
:101D1C009CF80346002B04D07B6804225A740123E0
:101D2C0060E07B681B685A687B681B6822F00702BE
:101D3C005A607B689B68002B05D02C4B1B6B2B4A85
:101D4C0023F001031363294BDB6A23F460727B6875
:101D5C009B6826491343CB627B685B68B3F1FF3FFA
:101D6C0003D07B685B68FB600EE00120FFF7E6FEAA
:101D7C00F860FB68002B04D17B6804225A740123A1
:101D8C0030E0FB68013BFB607B681B689B6823F0C1
:101D9C000F01FB681A0C7B681B680A439A607B680E
:101DAC001B68DB681B0C1B04FA6891B27A6812681A
:101DBC000B43D360786800F070F80346002B04D016
:101DCC007B6804225A7401230CE07B680022DA73CE
:101DDC007B6801225A737B6801229A737B6801220B
:101DEC005A74002318461037BD4680BD006C004065
:101DFC0080B584B000AF78600023FB607B68002B5B
:101E0C0001D101231DE07B681B685A687B681B6845
:101E1C0022F008025A60FEF711FDF86009E0FEF7A7
:101E2C000DFD0246FB68D31AB3F57A7F01D9032363
:101E3C0007E07B681B685B6803F00803002BEED09F
:101E4C00002318461037BD4680BD80B584B000AF66
:101E5C0078600023FB60FEF7F1FCF86009E0FEF708
:101E6C00EDFC0246FB68D31AB3F57A7F01D9032344
:101E7C000FE07B681B685B6803F02003002BEED03F
:101E8C007B681B685A687B681B6842F010025A60BA
:101E9C00002318461037BD4680BD80B584B000AF16
:101EAC0078600023FB607B681B685A687B681B6842
:101EBC0022F010025A60FEF7C1FCF86009E0FEF750
:101ECC00BDFC0246FB68D31AB3F57A7F01D9032314
:101EDC0007E07B681B685B6803F02003002BEED0E7
:101EEC00002318461037BD4680BD80B582B000AFC8
:101EFC0078607B68002B01D1012376E07B685B6AFC
:101F0C00002B08D17B685B68B3F5827F09D07B68B6
:101F1C000022DA6105E07B6800221A617B680022EE
:101F2C005A617B6800229A627B6893F85130DBB26D
:101F3C00002B06D17B68002283F850207868FEF7CE
:101F4C0057FB7B68022283F851207B681B681A6858
:101F5C007B681B6822F040021A607B685B6803F4A4
:101F6C0082727B689B6803F404431A437B68DB68CA
:101F7C0003F400631A437B681B6903F002031A43E2
:101F8C007B685B6903F001031A437B689B6903F46C
:101F9C0000731A437B68DB6903F038031A437B68D0
:101FAC001B6A03F0800342EA03017B689B6A03F41B
:101FBC0000527B681B680A431A607B689B691A0C89
:101FCC007B681B6802F004025A607B681B68DA6944
:101FDC007B681B6822F40062DA617B6800225A6518
:101FEC007B68012283F85120002318460837BD4630
:101FFC0080BD000070B500260C4D0D4C641BA41068
:10200C00A64209D100F022F800260A4D0A4C641BA6
:10201C00A410A64205D170BD55F8043B9847013673
:10202C00EEE755F8043B98470136F2E7A820000884
:10203C00A8200008A8200008AC2000080346024491
:10204C00934200D1704703F8011BF9E7F8B500BFC4
:10205C00F8BC08BC9E467047F8B500BFF8BC08BC7D
:04206C009E467047D5
:1020700002030405060708090A0B0C0D0E0F1010C9
:1020800002030405060708090A0B0C0D0E0F1010B9
:102090000000000000000000010203040607080918
:0820A00000000000010203042E
:0420A80031010008FA
:0420AC000D0100081A
:0C20B0000024F4001000000001000000FB
:040000050800074D9B
:00000001FF
