:020000040800F2
:100000000050002079030008090300080F030008CE
:10001000150300081B03000821030008000000006E
:10002000000000000000000000000000270300089E
:1000300033030008000000003F0300084B030008E2
:10004000C1030008C1030008C1030008C103000880
:10005000C1030008C1030008C1030008C103000870
:10006000C1030008C1030008C1030008C103000860
:10007000C1030008C1030008C1030008C103000850
:10008000C1030008C1030008C1030008C103000840
:10009000C1030008C1030008C1030008C103000830
:1000A000C1030008C1030008C1030008C103000820
:1000B000C1030008C1030008C1030008C103000810
:1000C000C1030008C1030008C10300085903000868
:1000D000C1030008C1030008C1030008C1030008F0
:1000E000C1030008C1030008C103000800000000AC
:1000F0000000000000000000000000000000000000
:0C01000000000000000000005FF808F1A3
:10010C0010B5054C237833B9044B13B10448AFF345
:10011C0000800123237010BD0C00002000000000A3
:10012C00F41A000808B5034B1BB103490348AFF39D
:10013C00008008BD0000000010000020F41A000828
:10014C0080B59CB000AF00F037F900F065F80023E3
:10015C0087F86F30002387F86430012387F8653007
:10016C00022387F86630032387F86730042387F867
:10017C006830052387F86930062387F86A3007232F
:10018C0087F86B30082387F86C30092387F86D30BB
:10019C0000233B603B1D60220021184601F09CFCB3
:1001AC0000221021184800F0E7FA97F86F303A4611
:1001BC00D11841F288330122144800F0DDFE0122EF
:1001CC001021114800F0D8FA97F86F303A46D11840
:1001DC000A2301220E4801F07FFB0A2302220D495B
:1001EC000B4801F079FB97F86F30013387F86F30CB
:1001FC0097F86F30642B02D1002387F86F3064209E
:10020C0000F03CF9CCE700BF000801406C00002076
:10021C00280000200C1B000880B590B000AF07F13F
:10022C00180328220021184601F056FC3B1D002221
:10023C001A605A609A60DA601A610223BB6101236A
:10024C00BB621023FB6200237B6307F11803184683
:10025C0000F0AAFA0346002B01D000F018F80F2387
:10026C007B600023BB600023FB6000233B61002309
:10027C007B613B1D0021184600F016FD0346002B48
:10028C0001D000F004F800BF4037BD4680BD80B4FB
:10029C0000AF72B600BFFEE780B485B000AF154B5F
:1002AC009B69144A43F001039361124B9B6903F061
:1002BC000103BB60BB680F4BDB690E4A43F08053F4
:1002CC00D3610C4BDB6903F080537B607B680A4B7A
:1002DC005B68FB60FB6823F0E063FB60FB6843F04A
:1002EC008063FB60044AFB68536000BF1437BD4653
:1002FC0080BC7047001002400000014080B400AF89
:10030C00FEE780B400AFFEE780B400AFFEE780B438
:10031C0000AFFEE780B400AFFEE780B400AF00BFD3
:10032C00BD4680BC704780B400AF00BFBD4680BCEA
:10033C00704780B400AF00BFBD4680BC704780B52D
:10034C0000AF00F07FF800BF80BD000080B500AFAB
:10035C00024801F0C5F800BF80BD00BF6C00002052
:10036C0080B400AF00BFBD4680BC70470C480D493F
:10037C000D4A002302E0D458C4500433C4188C42F4
:10038C00F9D30A4A0A4C002301E013600432A2425A
:10039C00FBD3FFF7E5FF01F07BFBFFF7D1FE7047C6
:1003AC00000000200C000020381B00080C0000206E
:1003BC00C8000020FEE7000080B500AF084B1B68AA
:1003CC00074A43F010031360032000F02BF90F20B1
:1003DC0000F008F8FFF760FF0023184680BD00BF4F
:1003EC000020024080B582B000AF7860124B1A68D2
:1003FC00124B1B7819464FF47A73B3FBF1F3B2FB33
:10040C00F3F3184600F035F90346002B01D0012315
:10041C000EE07B680F2B0AD8002279684FF0FF3072
:10042C0000F00BF9064A7B681360002300E00123FF
:10043C0018460837BD4680BD00000020080000208B
:10044C000400002080B400AF054B1B781A46054B06
:10045C001B681344034A136000BFBD4680BC704741
:10046C0008000020C400002080B400AF024B1B68C1
:10047C001846BD4680BC7047C400002080B584B0CF
:10048C0000AF7860FFF7F0FFB8607B68FB60FB683B
:10049C00B3F1FF3F05D00A4B1B781A46FB68134497
:1004AC00FB6000BFFFF7E0FF0246BB68D31AFA6897
:1004BC009A42F7D800BF00BF1037BD4680BD00BFC1
:1004CC000800002080B485B000AF78607B6803F032
:1004DC000703FB600C4BDB68BB60BA684FF6FF038D
:1004EC001340BB60FB681A02BB68134343F0BF6345
:1004FC0043F40033BB60044ABB68D36000BF1437BD
:10050C00BD4680BC704700BF00ED00E080B400AF7A
:10051C00044BDB681B0A03F007031846BD4680BC7E
:10052C00704700BF00ED00E080B483B000AF03461D
:10053C003960FB7197F90730002B0ADB3B68DAB2A4
:10054C000C4997F907301201D2B20B4483F80023FF
:10055C000AE03B68DAB20849FB7903F00F03043B6D
:10056C001201D2B20B441A7600BF0C37BD4680BCC8
:10057C00704700BF00E100E000ED00E080B489B0FE
:10058C0000AFF860B9607A60FB6803F00703FB61A9
:10059C00FB69C3F10703042B28BF0423BB61FB6970
:1005AC000433062B02D9FB69033B00E000237B617B
:1005BC004FF0FF32BB6902FA03F3DA43BB681A400F
:1005CC007B699A404FF0FF317B6901FA03F3D94301
:1005DC007B680B40134318462437BD4680BC7047DC
:1005EC0080B582B000AF78607B68013BB3F1807F4F
:1005FC0001D301230FE00A4A7B68013B53600F21B2
:10060C004FF0FF30FFF790FF054B00229A60044B30
:10061C0007221A60002318460837BD4680BD00BF6C
:10062C0010E000E080B582B000AF78607868FFF72A
:10063C0049FF00BF0837BD4680BD80B586B000AF0E
:10064C000346B9607A60FB7300237B61FFF75EFFA2
:10065C0078617A68B9687869FFF790FF024697F974
:10066C000F3011461846FFF75FFF00BF1837BD4625
:10067C0080BD80B582B000AF78607868FFF7B0FFBE
:10068C00034618460837BD4680BD000080B584B0CF
:10069C0000AF78600023FB737B6893F82130022B4A
:1006AC0005D07B6804229A630123FB7351E07B68BD
:1006BC001B681A687B681B6822F00E021A607B6844
:1006CC001B681A687B681B6822F001021A607B6841
:1006DC001B68224A934229D07B681B68204A9342AC
:1006EC0022D07B681B681F4A93421AD07B681B6818
:1006FC001D4A934212D07B681B681C4A93420AD055
:10070C007B681B681A4A934202D14FF480130EE0A7
:10071C004FF080730BE04FF4803308E04FF48053BC
:10072C0005E04FF4807302E0102300E00123114A2E
:10073C0053607B68012283F821207B68002283F8B8
:10074C0020207B685B6B002B03D07B685B6B78682D
:10075C009847FB7B18461037BD4680BD0800024009
:10076C001C0002403000024044000240580002408D
:10077C006C0002400000024080B483B000AF78608F
:10078C000B467B8013467B707B78002B03D07A88DA
:10079C007B681A6103E07B881A047B681A6100BFCE
:1007AC000C37BD4680BC704780B586B000AF786012
:1007BC007B68002B01D101236CE27B681B6803F082
:1007CC000103002B00F08780924B5B6803F00C0355
:1007DC00042B0CD08F4B5B6803F00C03082B12D14D
:1007EC008C4B5B6803F48033B3F5803F0BD1894BA2
:1007FC001B6803F40033002B6CD07B685B68002B08
:10080C0068D1012346E27B685B68B3F5803F06D173
:10081C00804B1B687F4A43F4803313602EE07B6867
:10082C005B68002B0CD17B4B1B687A4A23F480331A
:10083C001360784B1B68774A23F4802313601DE008
:10084C007B685B68B3F5A02F0CD1724B1B68714AA7
:10085C0043F4802313606F4B1B686E4A43F4803360
:10086C0013600BE06B4B1B686A4A23F480331360F4
:10087C00684B1B68674A23F4802313607B685B68B2
:10088C00002B13D0FFF7F0FD386108E0FFF7ECFD0B
:10089C0002463B69D31A642B01D90323FAE15D4B61
:1008AC001B6803F40033002BF0D014E0FFF7DCFDE1
:1008BC00386108E0FFF7D8FD02463B69D31A642B78
:1008CC0001D90323E6E1534B1B6803F40033002BDF
:1008DC00F0D100E000BF7B681B6803F00203002B23
:1008EC0063D04C4B5B6803F00C03002B0BD0494BD3
:1008FC005B6803F00C03082B1CD1464B5B6803F4BC
:10090C008033002B16D1434B1B6803F00203002BE2
:10091C0005D07B681B69012B01D00123BAE13D4B4B
:10092C001B6823F0F8027B685B69DB0039491343D1
:10093C000B603AE07B681B69002B20D0364B012200
:10094C001A60FFF791FD386108E0FFF78DFD024654
:10095C003B69D31A022B01D903239BE12D4B1B6856
:10096C0003F00203002BF0D02A4B1B6823F0F80293
:10097C007B685B69DB00274913430B6015E0264B52
:10098C0000221A60FFF770FD386108E0FFF76CFD7C
:10099C0002463B69D31A022B01D903237AE11D4B82
:1009AC001B6803F00203002BF0D17B681B6803F07B
:1009BC000803002B3AD07B689B69002B19D0174B8E
:1009CC0001221A60FFF750FD386108E0FFF74CFD7B
:1009DC0002463B69D31A022B01D903235AE10D4B72
:1009EC005B6A03F00203002BF0D0012000F0A6FAA2
:1009FC001CE00A4B00221A60FFF736FD38610FE04D
:100A0C00FFF732FD02463B69D31A022B08D90323A8
:100A1C0040E100BF0010024000004242800442420C
:100A2C009E4B5B6A03F00203002BE9D17B681B68C9
:100A3C0003F00403002B00F0A6800023FB75974BFA
:100A4C00DB6903F08053002B0DD1944BDB69934A87
:100A5C0043F08053D361914BDB6903F08053BB604F
:100A6C00BB680123FB758E4B1B6803F48073002B52
:100A7C0018D18B4B1B688A4A43F480731360FFF7C1
:100A8C00F3FC386108E0FFF7EFFC02463B69D31A30
:100A9C00642B01D90323FDE0814B1B6803F48073A5
:100AAC00002BF0D07B68DB68012B06D17B4B1B6ADB
:100ABC007A4A43F0010313622DE07B68DB68002B5C
:100ACC000CD1764B1B6A754A23F001031362734BEE
:100ADC001B6A724A23F0040313621CE07B68DB6818
:100AEC00052B0CD16D4B1B6A6C4A43F0040313624B
:100AFC006A4B1B6A694A43F0010313620BE0674BB4
:100B0C001B6A664A23F001031362644B1B6A634A37
:100B1C0023F0040313627B68DB68002B15D0FFF70E
:100B2C00A3FC38610AE0FFF79FFC02463B69D31A2D
:100B3C0041F28832934201D90323ABE0574B1B6A35
:100B4C0003F00203002BEED014E0FFF78DFC3861AC
:100B5C000AE0FFF789FC02463B69D31A41F288325E
:100B6C00934201D9032395E04C4B1B6A03F002031B
:100B7C00002BEED1FB7D012B05D1484BDB69474A9D
:100B8C0023F08053D3617B68DB69002B00F08180FC
:100B9C00424B5B6803F00C03082B61D07B68DB696C
:100BAC00022B46D13F4B00221A60FFF75DFC3861E7
:100BBC0008E0FFF759FC02463B69D31A022B01D916
:100BCC00032367E0354B1B6803F00073002BF0D157
:100BDC007B681B6AB3F5803F08D1304B5B6823F40C
:100BEC0000327B689B682D4913434B602B4B5B6831
:100BFC0023F474127B68196A7B685B6A0B43274980
:100C0C0013434B60274B01221A60FFF72DFC386110
:100C1C0008E0FFF729FC02463B69D31A022B01D9E5
:100C2C00032337E01D4B1B6803F00073002BF0D03F
:100C3C002FE01C4B00221A60FFF716FC386108E00D
:100C4C00FFF712FC02463B69D31A022B01D903238E
:100C5C0020E0124B1B6803F00073002BF0D118E05E
:100C6C007B68DB69012B01D1012313E00B4B5B6823
:100C7C00FB60FB6803F480327B681B6A9A4206D1E6
:100C8C00FB6803F470127B685B6A9A4201D0012303
:100C9C0000E0002318461837BD4680BD0010024006
:100CAC00007000406000424280B584B000AF7860B4
:100CBC0039607B68002B01D10123D0E06A4B1B68A3
:100CCC0003F007033A689A4210D9674B1B6823F06C
:100CDC00070265493B6813430B60634B1B6803F0C9
:100CEC0007033A689A4201D00123B8E07B681B687D
:100CFC0003F00203002B20D07B681B6803F0040375
:100D0C00002B05D0594B5B68584A43F4E0635360A1
:100D1C007B681B6803F00803002B05D0534B5B6802
:100D2C00524A43F460535360504B5B6823F0F0021B
:100D3C007B689B684D4913434B607B681B6803F0D1
:100D4C000103002B40D07B685B68012B07D1474B1C
:100D5C001B6803F40033002B15D101237FE07B6863
:100D6C005B68022B07D1414B1B6803F00073002B0F
:100D7C0009D1012373E03D4B1B6803F00203002BE8
:100D8C0001D101236BE0394B5B6823F003027B68D4
:100D9C005B68364913434B60FFF766FBF8600AE06B
:100DAC00FFF762FB0246FB68D31A41F2883293428A
:100DBC0001D9032353E02D4B5B6803F00C027B68D5
:100DCC005B689B009A42EBD1274B1B6803F007032F
:100DDC003A689A4210D2244B1B6823F0070222492E
:100DEC003B6813430B60204B1B6803F007033A6806
:100DFC009A4201D0012332E07B681B6803F00403A4
:100E0C00002B08D0194B5B6823F4E0627B68DB682D
:100E1C00164913434B607B681B6803F00803002BD7
:100E2C0009D0124B5B6823F460527B681B69DB00B2
:100E3C000E4913434B6000F021F802460B4B5B68E4
:100E4C001B0903F00F030A49CB5C22FA03F3094A8E
:100E5C001360094B1B681846FFF7C4FA00231846A9
:100E6C001037BD4680BD00BF00200240001002407C
:100E7C00201B0008000000200400002090B48AB061
:100E8C0000AF2A4B3C1D0FCB84E80F0040F201232E
:100E9C003B800023FB610023BB6100237B620023AA
:100EAC007B6100233B62224B5B68FB61FB6903F0B7
:100EBC000C03042B02D0082B03D02DE01D4B3B62FE
:100ECC002DE0FB699B0C03F00F0307F12802134480
:100EDC0013F8243C7B61FB6903F48033002B13D0A3
:100EEC00134B5B685B0C03F0010307F128021344FE
:100EFC0013F8283CBB617B690E4A02FB03F2BB6909
:100F0C00B2FBF3F37B6204E07B690B4A02FB03F355
:100F1C007B627B6A3B6202E0064B3B6200BF3B6A32
:100F2C0018462837BD4690BC704700BF101B000800
:100F3C000010024000127A0000093D0080B485B018
:100F4C0000AF78600A4B1B680A4AA2FB03235B0ABA
:100F5C007A6802FB03F3FB6000BFFB685A1EFA6061
:100F6C00002BF9D100BF00BF1437BD4680BC7047C1
:100F7C0000000020D34D621080B588B002AFF8603D
:100F8C00B9603B601346FB800023FB75FB685B6814
:100F9C00B3F5827F12D1FB689B68002B0ED1FB68E6
:100FAC00042283F85120FA883B6800931346BA68F0
:100FBC00B968F86800F0F1F80346EAE0FB6893F8CA
:100FCC005030012B01D10223E3E0FB68012283F8AE
:100FDC005020FFF749FA3861FB6893F85130DBB2C7
:100FEC00012B02D00223FB75CAE0BB68002B02D098
:100FFC00FB88002B02D10123FB75C1E0FB680422A6
:10100C0083F85120FB6800225A65FB68BA689A6322
:10101C00FB68FA889A87FB68FA88DA87FB680022F3
:10102C001A63FB6800229A86FB680022DA86FB684A
:10103C0000221A64FB6800225A64FB689B68B3F5B3
:10104C00004F0FD1FB681B681A68FB681B6822F005
:10105C0040021A60FB681B681A68FB681B6822F464
:10106C0080421A60FB681B681B6803F04003402B2E
:10107C0007D0FB681B681A68FB681B6842F04002CB
:10108C001A60FB68DB68002B62D12EE0FB681B68E2
:10109C009B6803F00103012B15D1FB681B6803F15E
:1010AC000C02FB689B6B1278D2B21A70FB689B6BBC
:1010BC005A1CFB689A63FB68DB8F9BB2013B9AB2AC
:1010CC00FB68DA8711E0FFF7CFF902463B69D31AC8
:1010DC003A689A4203D83B68B3F1FF3F02D13B68B0
:1010EC00002B02D10323FB754AE0FB68DB8F9BB21C
:1010FC00002BCBD131E0FB681B689B6803F001032C
:10110C00012B13D1FB681B68DA68FB689B6B92B2EE
:10111C001A80FB689B6B9A1CFB689A63FB68DB8FDD
:10112C009BB2013B9AB2FB68DA8711E0FFF79CF99E
:10113C0002463B69D31A3A689A4203D83B68B3F12A
:10114C00FF3F02D13B68002B02D10323FB7517E054
:10115C00FB68DB8F9BB2002BCDD13A693968F868FC
:10116C0000F04AFB0346002B02D0FB6820225A6594
:10117C00FB685B6D002B02D00123FB7500E000BF08
:10118C00FB68012283F85120FB68002283F8502071
:10119C00FB7D18461837BD4680BD80B58CB000AFBE
:1011AC00F860B9607A607B800123FB62002387F8CA
:1011BC002B30FB6893F85030012B01D102238AE1CC
:1011CC00FB68012283F85020FFF74EF97862FB6828
:1011DC0093F8513087F82330FB685B68FB617B88A0
:1011EC007B8397F82330012B0FD0FB69B3F5827FFB
:1011FC0007D1FB689B68002B03D197F82330042B95
:10120C0003D0022387F82B305BE1BB68002B05D0A1
:10121C007B68002B02D07B88002B03D1012387F83D
:10122C002B304EE1FB6893F85130DBB2042B03D02A
:10123C00FB68052283F85120FB6800225A65FB6885
:10124C007A689A63FB687A88DA87FB687A889A8767
:10125C00FB68BA681A63FB687A88DA86FB687A8856
:10126C009A86FB6800221A64FB6800225A64FB68A9
:10127C001B681B6803F04003402B07D0FB681B68FE
:10128C001A68FB681B6842F040021A60FB68DB6856
:10129C00B3F5006F78D1FB685B68002B02D07B8BB9
:1012AC00012B66D1FB681B6B1A88FB681B68DA6024
:1012BC00FB681B6B9A1CFB681A63FB68DB8E9BB28A
:1012CC00013B9AB2FB68DA8653E0FB681B689B68AB
:1012DC0003F00203022B1BD1FB68DB8E9BB2002BAD
:1012EC0016D0FB6A012B13D1FB681B6B1A88FB68A9
:1012FC001B68DA60FB681B6B9A1CFB681A63FB6843
:10130C00DB8E9BB2013B9AB2FB68DA860023FB6250
:10131C00FB681B689B6803F00103012B19D1FB6868
:10132C00DB8F9BB2002B14D0FB681B68DA68FB6860
:10133C009B6B92B21A80FB689B6B9A1CFB689A633E
:10134C00FB68DB8F9BB2013B9AB2FB68DA87012307
:10135C00FB62FFF789F802467B6AD31ABA6B9A4292
:10136C0007D8BB6BB3F1FF3F03D0032387F82B30B7
:10137C00A7E0FB68DB8E9BB2002BA6D1FB68DB8F52
:10138C009BB2002BA1D17CE0FB685B68002B02D0E8
:10139C007B8B012B6BD1FB681A6BFB681B680C33C6
:1013AC0012781A70FB681B6B5A1CFB681A63FB687B
:1013BC00DB8E9BB2013B9AB2FB68DA8657E0FB6886
:1013CC001B689B6803F00203022B1CD1FB68DB8EAD
:1013DC009BB2002B17D0FB6A012B14D1FB681A6B44
:1013EC00FB681B680C3312781A70FB681B6B5A1C59
:1013FC00FB681A63FB68DB8E9BB2013B9AB2FB68FD
:10140C00DA860023FB62FB681B689B6803F0010310
:10141C00012B19D1FB68DB8F9BB2002B14D0FB681E
:10142C001B68DA68FB689B6BD2B21A70FB689B6B0B
:10143C005A1CFB689A63FB68DB8F9BB2013B9AB228
:10144C00FB68DA870123FB62FFF70EF802467B6A22
:10145C00D31ABA6B9A4203D8BB6BB3F1FF3F02D1DC
:10146C00BB6B002B03D1032387F82B3029E0FB68DF
:10147C00DB8E9BB2002BA2D1FB68DB8F9BB2002BC7
:10148C009DD17A6AB96BF86800F008FA0346002B14
:10149C0006D0012387F82B30FB6820225A6510E018
:1014AC00FB689B68002B0BD100237B61FB681B68DE
:1014BC00DB687B61FB681B689B687B617B6900E078
:1014CC0000BFFB68012283F85120FB68002283F8DF
:1014DC00502097F82B3018463037BD4680BD0000A1
:1014EC0080B588B000AF78607B681B685B68FB6177
:1014FC007B681B689B68BB61BB699B0903F001039C
:10150C00002B0FD1BB6903F00103002B0AD0FB6940
:10151C009B0903F00103002B04D07B681B6C7868DB
:10152C009847BEE0BB695B0803F00103002B0AD0AF
:10153C00FB69DB0903F00103002B04D07B685B6CB7
:10154C0078689847ADE0BB695B0903F00103002B99
:10155C0006D1BB699B0903F00103002B00F0A180AD
:10156C00FB695B0903F00103002B00F09A80BB6957
:10157C009B0903F00103002B23D07B6893F85130B7
:10158C00DBB2032B11D07B685B6D43F004027B68EC
:10159C005A6500237B617B681B68DB687B617B6819
:1015AC001B689B687B617B690BE000233B617B685C
:1015BC001B68DB683B617B681B689B683B613B6914
:1015CC006FE0BB695B0903F00103002B14D07B684F
:1015DC005B6D43F001027B685A650023FB607B68FE
:1015EC001B689B68FB607B681B681A687B681B68C0
:1015FC0022F040021A60FB687B685B6D002B4FD0B9
:10160C007B681B685A687B681B6822F0E0025A6092
:10161C007B68012283F85120FB6903F00203002B45
:10162C0004D1FB6903F00103002B34D07B681B68E9
:10163C005A687B681B6822F003025A607B68DB6C7B
:10164C00002B11D07B68DB6C174A5A637B68DB6C10
:10165C001846FFF71BF80346002B05D07B685B6D23
:10166C0043F040027B685A657B689B6C002B16D05C
:10167C007B689B6C0C4A5A637B689B6C1846FFF723
:10168C0005F80346002B0AD07B685B6D43F04002E3
:10169C007B685A6503E0786800F008F800E000BF4A
:1016AC0000BF2037BD4680BDCB16000880B483B088
:1016BC0000AF786000BF0C37BD4680BC704780B56A
:1016CC0084B000AF78607B685B6AFB60FB680022CB
:1016DC00DA87FB680022DA86F868FFF7E7FF00BFBD
:1016EC001037BD4680BD000080B588B000AFF860F3
:1016FC00B9603B601346FB71FEF7B6FE0246BB6A4F
:10170C009B1A3A681344FB61FEF7AEFEB861394B85
:10171C001B685B011B0DFA6902FB03F37B6154E050
:10172C003B68B3F1FF3F50D0FEF79EFE0246BB690B
:10173C00D31AFA699A4202D9FB69002B3DD1FB6896
:10174C001B685A68FB681B6822F0E0025A60FB6851
:10175C005B68B3F5827F11D1FB689B68B3F5004FD2
:10176C0004D0FB689B68B3F5806F07D1FB681B68DE
:10177C001A68FB681B6822F040021A60FB689B6ABF
:10178C00B3F5005F0FD1FB681B681A68FB681B6818
:10179C0022F400521A60FB681B681A68FB681B680D
:1017AC0042F400521A60FB68012283F85120FB6856
:1017BC00002283F85020032317E07B69002B01D112
:1017CC000023FB617B69013B7B61FB681B689A68AA
:1017DC00BB681340BA689A420CBF01230023DBB2EA
:1017EC001A46FB799A429BD1002318462037BD46F6
:1017FC0080BD00BF0000002080B586B002AFF8604D
:10180C00B9607A60FB685B68B3F5827F11D1FB68C5
:10181C009B68B3F5004F04D0FB689B68B3F5806FF1
:10182C0007D1FB681B681A68FB681B6822F0400232
:10183C001A60FB685B68B3F5827F17D1FB689B6805
:10184C00B3F5806F12D17B680093BB680022012135
:10185C00F868FFF749FF0346002B1AD0FB685B6D55
:10186C0043F02002FB685A65032313E07B68009366
:10187C00BB6800228021F868FFF736FF0346002B77
:10188C0007D0FB685B6D43F02002FB685A650323AD
:10189C0000E0002318461037BD4680BD80B586B0E9
:1018AC0002AFF860B9607A607B680093BB68002275
:1018BC008021F868FFF718FF0346002B07D0FB6860
:1018CC005B6D43F02002FB685A65032300E00023A4
:1018DC0018461037BD4680BD80B58AB002AFF8609F
:1018EC00B9603B601346FB8000237B61FB6893F877
:1018FC003D30DBB2202B7CD1BB68002B02D0FB88A7
:10190C00002B01D1012375E0FB6893F83C30012BCF
:10191C0001D102236EE0FB68012283F83C20FB68B6
:10192C0000221A64FB68212283F83D20FEF79CFDFF
:10193C007861FB68FA889A84FB68FA88DA84FB6819
:10194C009B68B3F5805F08D1FB681B69002B04D141
:10195C000023FB61BB68BB6103E0BB68FB61002338
:10196C00BB61FB68002283F83C202AE03B680093B3
:10197C007B6900228021F86800F040F80346002BB8
:10198C0001D0032336E0FB69002B0BD1BB691B880C
:10199C001A46FB681B68C2F308025A60BB69023323
:1019AC00BB6107E0FB691A78FB681B685A60FB692E
:1019BC000133FB61FB68DB8C9BB2013B9AB2FB6889
:1019CC00DA84FB68DB8C9BB2002BCFD13B68009395
:1019DC007B6900224021F86800F010F80346002BC8
:1019EC0001D0032306E0FB68202283F83D2000236E
:1019FC0000E0022318462037BD4680BD80B584B078
:101A0C0000AFF860B9603B601346FB712CE0BB691A
:101A1C00B3F1FF3F28D0BB69002B07D0FEF724FDA4
:101A2C0002463B68D31ABA699A421DD2FB681B68FE
:101A3C00DA68FB681B6822F4D072DA60FB681B68FA
:101A4C005A69FB681B6822F001025A61FB6820226C
:101A5C0083F83D20FB68202283F83E20FB6800229F
:101A6C0083F83C2003230FE0FB681B681A68BB68F3
:101A7C001340BA689A420CBF01230023DBB21A460A
:101A8C00FB799A42C3D0002318461037BD4680BD5F
:101A9C0070B500260C4D0D4C641BA410A64209D148
:101AAC0000F022F800260A4D0A4C641BA410A64232
:101ABC0005D170BD55F8043B98470136EEE755F853
:101ACC00043B98470136F2E7301B0008301B000836
:101ADC00301B0008341B000803460244934200D11B
:101AEC00704703F8011BF9E7F8B500BFF8BC08BC58
:101AFC009E467047F8B500BFF8BC08BC9E467047C0
:101B0C000A00000002030405060708090A0B0C0D65
:101B1C000E0F101000000000000000000102030472
:041B2C000607080997
:041B30003101000877
:041B34000D01000897
:0C1B38000024F400100000000100000078
:040000050800037973
:00000001FF
